:020000040800F2
:1000000000040020CF010008DD0100085F2D00087A
:10001000E1010008E3010008E5010008000000001C
:10002000000000000000000000000000E7010008E0
:10003000E901000800000000EB010008A72000080B
:10004000EF010008EF010008EF010008EF010008D0
:10005000EF010008EF010008EF010008EF010008C0
:10006000EF010008EF010008EF010008EF010008B0
:10007000EF010008EF010008EF010008EF010008A0
:10008000EF010008EF010008EF010008EF01000890
:10009000EF010008EF010008EF010008EF01000880
:1000A000EF010008EF010008EF010008EF01000870
:1000B000EF010008EF010008EF010008EF01000860
:1000C000EF010008EF010008EF010008EF01000850
:1000D000EF010008EF010008EF010008EF01000840
:1000E000EF010008EF010008EF010008EF01000830
:1000F000EF010008EF010008EF010008EF01000820
:10010000EF010008EF010008EF010008EF0100080F
:10011000EF010008EF010008EF010008EF010008FF
:10012000EF010008EF010008EF010008EF010008EF
:1001300000F002F800F03AF80AA090E8000C8244BF
:100140008344AAF10107DA4501D100F02FF8AFF29C
:10015000090EBAE80F0013F0010F18BFFB1A43F0A5
:1001600001031847A8330000C8330000103A24BF29
:1001700078C878C1FAD8520724BF30C830C144BF0C
:1001800004680C607047000000230024002500264E
:10019000103A28BF78C1FBD8520728BF30C148BFEA
:1001A0000B6070471FB51FBD10B510BD02F03EFEBD
:1001B0001146FFF7F7FF02F074FD02F05CFE03B496
:1001C000FFF7F2FF03BC02F063FE000070470B482C
:1001D00080470B4981F308880A480047FEE7FEE79D
:1001E000FEE7FEE7FEE7FEE7FEE7FEE7FEE7FEE7E7
:1001F00005480649044A064B70470000CD01000837
:10020000480A00203101000848020020480A002066
:100210004802002031490143314A1160704770B5EE
:10022000002100230F22C47804B32D4C246804F469
:10023000E064C4F5E064210AC1F10403CA404478D3
:1002400004FA03F18478144021430901254C06780F
:10025000A155047804F01F050124AC4005786D1108
:10026000AD0005F1E025C5F8004109E0047804F08F
:100270001F050124AC401C4D0678761145F8264038
:1002800070BD1A4A0A400243154B1B1F1A60704783
:1002900039B1134A121D12680243114B1B1D1A601B
:1002A00006E00F4A121D126882430D4B1B1D1A6097
:1002B0007047042808D14FF0E021096941F004019A
:1002C0004FF0E022116107E04FF0E021096921F0D1
:1002D00004014FF0E0221161704700000000FA05B0
:1002E0000CED00E000E400E080E100E080FFFF1F93
:1002F00001460020FE4A106800F0380008431060F4
:100300007047FB49096821F00801F94A116011465C
:100310000968014311607047F549096821F010012F
:10032000F34A116011460968014311607047F148B2
:10033000EF494860F04848607047EE48EC49486033
:10034000ED4848607047EA48006940F08000E8499D
:1003500008617047E648006940F08000E4490861A0
:1003600070470420E249C96801F0010109B1012088
:100370000EE0DF49C96801F0040109B1022007E07D
:10038000DB49C96801F0100109B1032000E0042035
:10039000704700B502460423FFF7E3FF034603E07E
:1003A000FFF7DFFF0346521E012B01D1002AF7D1D0
:1003B00002B90523184600BD30B5044604254FF4A4
:1003C0003020FFF7E6FF0546042D17D1C848006925
:1003D00040F00200C649086108464461006940F0E7
:1003E000400008614FF43020FFF7D3FF0546C048B6
:1003F000006941F6FD710840BD490861284630BDDD
:1004000010B504244FF43020FFF7C3FF0446042C3A
:1004100016D1B748006940F00400B54908610846A4
:10042000006940F0400008614FF43020FFF7B1FF51
:100430000446AF48006941F6FB710840AC490861C9
:10044000204610BD00B502460423FFF78AFF03468D
:1004500003E0FFF786FF0346521E012B01D1002A5D
:10046000F7D102B90523184600BD10B504244FF496
:100470003020FFF7E7FF0446042C16D19C480069A2
:1004800040F004009A4908610846006940F04000C5
:1004900008614FF43020FFF7D5FF04469448006907
:1004A00041F6FB71084092490861204610BD0020CA
:1004B0008F49C96901F0020109B1012000E0002063
:1004C000704730B5A5250424FFF7F1FF00B10025E2
:1004D0004FF43020FFF75DFF0446042C3AD18548E5
:1004E00083498860844888600846006940F020009D
:1004F00008610846006940F0400008614FF4302070
:10050000FFF747FF0446042C1BD17948006941F6E8
:10051000DF710840764908610846006940F0100024
:10052000086176480580E002FFF733FF0446052C9A
:1005300010D06F48006941F6EF7108406C490861BE
:1005400008E0052C06D06A48006941F6EF710840C2
:1005500067490861204630BD78B506460C4604253B
:1005600000200090E802FFF714FF0546042D24D177
:100570005F48006940F001005D4908613480E8028D
:10058000FFF707FF0546042D10D1B01C0090200C8A
:1005900000990880E802FFF7FCFE05465448006910
:1005A00041F6FE7108405249086106E05048006972
:1005B00041F6FE7108404E490861284678BD70B585
:1005C00004460D460426F002FFF7E3FE0646042E1D
:1005D00011D14748006940F0010045490861258074
:1005E000F002FFF7D6FE06464148006941F6FE716B
:1005F00008403F490861304670BD70B505460E465B
:100600000424E002FFF7C5FE0446042C17D1394844
:1006100037498860384888600846006940F0100013
:1006200008612E80E002FFF7B4FE0446052C06D0D8
:100630002F48006941F6EF7108402D4908612046B6
:1006400070BD2DE9F04304464FF6FF763746B046BD
:10065000B1460425E443E6B2C4F30727C4F30748D0
:100660004FEA1469E802FFF794FE0546042D49D1CC
:1006700020481F498860204888600846006940F08B
:1006800010000861FF2E06D01C4808300680E802E2
:10069000FFF77FFE0546042D08D1FF2F06D017482F
:1006A0000A300780E802FFF774FE0546042D0AD1E0
:1006B000B8F1FF0F07D011480C30A0F80080E80215
:1006C000FFF767FE0546042D0AD1B9F1FF0F07D0E9
:1006D0000A480E30A0F80090E802FFF75AFE0546DF
:1006E000052D0FD00248006941F6EF71084007E080
:1006F0000020024023016745AB89EFCD00F8FF1FC2
:10070000664908612846BDE8F08330B505460424F3
:100710004FF43020FFF73DFE0446042C41D16048E1
:100720005E4988605F4888600846006940F02000A4
:1007300008610846006940F0400008614FF430202D
:10074000FFF727FE0446042C22D15448006941F6E5
:10075000DF710840514908610846006940F0100007
:1007600008611DB100205049088002E0A5204E49D3
:1007700008804FF43020FFF70CFE0446052C10D003
:100780004648006941F6EF7108404449086108E0B5
:10079000052C06D04148006941F6DF7108403F4909
:1007A0000861204630BDF0B505460E4617460424C4
:1007B0003B483A4988603B488860E002FFF7E9FD22
:1007C0000446042C19D13548006940F01000334923
:1007D000086147F0F800304328433349891C0880FA
:1007E000E002FFF7D6FD0446052C06D02B48006931
:1007F00041F6EF710840294908612046F0BD2748BD
:10080000C069800870472548006A70470020234966
:10081000096801F0200109B1012000E000207047C3
:1008200029B11E4A126902431C4B1A6104E01B4A9B
:1008300012698243194B1A61704701460020012951
:1008400008D1164AD26902F001020AB1012008E07B
:10085000002006E0114AD2680A400AB1012000E0F7
:10086000002070470D49C860704704200B49C968D3
:1008700001F0010109B101200EE00849C96801F049
:10088000040109B1022007E00449C96801F0100120
:1008900009B1032000E0042070470000002002405E
:1008A00023016745AB89EFCD00F8FF1F10B5044663
:1008B000CC48844208D10121042000F02DFB002106
:1008C000042000F029FB46E0C748844208D10121FA
:1008D000082000F021FB0021082000F01DFB3AE079
:1008E000C248844208D10121102000F015FB0021EC
:1008F000102000F011FB2EE0BD48844208D10121F8
:10090000202000F009FB0021202000F005FB22E060
:10091000B848844208D10121402000F0FDFA0021AE
:10092000402000F0F9FA16E0B348844208D10121D2
:10093000802000F0F1FA0021802000F0EDFA0AE0BA
:10094000AE48844207D10121801500F0E5FA00216C
:10095000A01500F0E1FA10BD10B50121084600F025
:10096000DBFA0021012000F0D7FA10BD2DE9F0419B
:10097000024600250026002000230024002791F8CD
:1009800003C00CF00F0591F803C00CF0100CBCF183
:10099000000F03D091F802C04CEA050591F800C0A1
:1009A000BCF1000F31D0146800202BE04FF0010C97
:1009B0000CFA00F3B1F800C00CEA03069E4220D105
:1009C00083004FF00F0C0CFA03F7BC4305FA03FC4D
:1009D0004CEA040491F803C0BCF1280F06D14FF093
:1009E000010C0CFA00FCC2F814C00AE091F803C034
:1009F000BCF1480F05D14FF0010C0CFA00FCC2F815
:100A000010C0401C0828D1D31460B1F800C0BCF15C
:100A1000FF0F34DD546800202EE000F1080C4FF089
:100A2000010808FA0CF3B1F800C00CEA03069E4274
:100A300021D183004FF00F0C0CFA03F7BC4305FAE9
:100A400003FC4CEA040491F803C0BCF1280F05D163
:100A500000F1080C08FA0CF8C2F8148091F803C0F1
:100A6000BCF1480F07D100F1080C4FF0010808FA5B
:100A70000CF8C2F81080401C0828CED35460BDE8A2
:100A8000F0814FF6FF710180022181700421C17055
:100A900070470246002093680B400BB1012000E034
:100AA000002070470146886880B2704702460020E7
:100AB000D3680B400BB1012000E0002070470146D5
:100AC000C86880B2704701617047416170470AB1E0
:100AD000016100E041617047C16070474FF48032AE
:100AE0000A4382618161826182698269704702463C
:100AF0000020434B18684FF68073184040EA0210FC
:100B000008433F4B186070473E49C8617047F0B5D5
:100B10000A46002300240021002500F00046B6F11B
:100B2000004F02D1364EF16901E0354E7168C0F3D5
:100B3000034583B200F44016B6F5401F08D121F0FA
:100B400070612F4E766826F070662D4F7E6012E041
:100B500000F48016B6F5801F06D1032606FA05F4C8
:100B6000A14341F0706106E0460D360103FA06F636
:100B7000B14341F0706122B1460D360103FA06F629
:100B8000314300F00046B6F1004F02D11C4EF16136
:100B900001E01B4E7160F0BD30B500228B071C0FC9
:100BA0000F2303FA04F2164B08338C1053F8243049
:100BB0009343134C08348D1044F8253023468C1091
:100BC00053F824308C07240F00FA04F423430C4C10
:100BD00008348D1044F8253030BD0A49DC310860F6
:100BE0007047000000080140000C01400010014067
:100BF0000014014000180140001C01400020014089
:100C00000000014000002042DF48006840F0010081
:100C1000DD49086008464068DC490840DA49486018
:100C200008460068DA490840D74908600846006865
:100C300020F4802008600846406820F4FE004860E8
:100C40004FF41F0088607047CF49096821F4803154
:100C5000CD4A11601146096821F480211160B0F578
:100C6000803F03D0B0F5802F0ED106E0C649096859
:100C700041F48031C44A116007E0C349096841F476
:100C8000A021C14A116000E000BF00BF704710B54D
:100C900001460022002300204A11012A02D1BA4C49
:100CA000236806E0022A02D1B74C236A01E0B64C61
:100CB000636A01F01F02012494401C400CB1012022
:100CC00000E0002010BD38B5002000900024002571
:100CD00000BF3120FFF7DBFF05460098401C009065
:100CE0000098B0F5A06F01D0002DF2D03120FFF7B1
:100CF000CEFF08B1012400E00024204638BD0146A3
:100D00000020A14A106820F0F80040EAC1001060FD
:100D10007047A04908607047024600209A4B586807
:100D200020F47C1042EA01031843974B5860704747
:100D300098490866704701460020934A506820F0A1
:100D400003000843506070478F48406800F00C0073
:100D50007047014600208C4A506820F0F00008439C
:100D60005060704701460020874A506820F4E060D8
:100D700008435060704701460020834A506820F4C1
:100D8000605040EAC1005060704729B17E4A527AF3
:100D900002437D4B5A7204E07B4A527A82437A4B7B
:100DA0005A7270477B49D83108607047014600206D
:100DB000754A506820F44040084350607047002155
:100DC000714A20321170704A82F82010012802D036
:100DD00004280AD104E001216B4A2032117005E099
:100DE0000521694A2032117000E000BF00BF704742
:100DF0006949086070476449096A0143624A11629F
:100E00007047654944390860704730B500210022B9
:100E1000002400235C4D6D6805F00C0121B104290C
:100E200005D0082923D105E05C4D056022E05B4D2B
:100E300005601FE0544D6D6805F47012524D6D68E9
:100E400005F48034022505EB92421CB9544D5543FC
:100E500005600BE04C4D6D6805F400351DB1504D3B
:100E60005543056002E04D4D5543056002E04B4D92
:100E7000056000BF00BF444D6D6805F0F001090931
:100E8000484D6B5C0568DD4045603F4D6D6805F47D
:100E9000E061090A434D6B5C4568DD4085603A4D71
:100EA0006D6805F46051C90A3E4D6B5C4568DD40D4
:100EB000C560354D6D6805F44041890B3A4D6B5C5A
:100EC000C568B5FBF3F5056130BD29B12E4A5269FD
:100ED00002432D4B5A6104E02B4A526982432A4B4C
:100EE0005A61704729B1284A92690243264B9A6198
:100EF00004E0254A92698243234B9A61704729B1E5
:100F0000214AD2690243204BDA6104E01E4AD269C9
:100F100082431D4BDA61704729B11B4AD2680243F4
:100F2000194BDA6004E0184AD2688243164BDA6043
:100F3000704729B1144A12690243134B1A6104E045
:100F4000114A12698243104B1A61704712494039A5
:100F5000086070470F49C86470470B49C8717047F3
:100F60000948406A40F0807007494862704701466E
:100F70000020054A92680A400AB1012000E00020E2
:100F80007047014988727047001002400000FFF866
:100F9000FFFFF6FE000042428004424200127A0047
:100FA00000093D00000000201000002010B504469C
:100FB000FE48844208D10121C014FFF7ADFF002193
:100FC000E014FFF7A9FFC4E0B4F1804F08D101217C
:100FD0000846FFF7AEFF00210120FFF7AAFFB8E0A7
:100FE000F348844208D101210220FFF7A2FF00212B
:100FF0000220FFF79EFFACE0EE48844208D10121B9
:101000000420FFF796FF00210420FFF792FFA0E0E5
:10101000E948844208D101210820FFF78AFF002116
:101020000820FFF786FF94E0E448844208D10121BC
:101030001020FFF77EFF00211020FFF77AFF88E0E5
:10104000DF48844208D101212020FFF772FF0021F0
:101050002020FFF76EFF7CE0DA48844208D10121AE
:101060004014FFF759FF00216014FFF755FF70E0AF
:10107000D548844209D10121C804FFF74DFF002162
:101080004FF40020FFF748FF63E0D048844209D1C5
:1010900001210805FFF740FF00214FF48010FFF702
:1010A0003BFF56E0CA48844209D101214805FFF7B9
:1010B00033FF00214FF40010FFF72EFF49E0C54831
:1010C000844208D101214020FFF733FF0021402056
:1010D000FFF72FFF3DE0C048844208D10121802066
:1010E000FFF727FF00218020FFF723FF31E0BB48F7
:1010F000844208D101218015FFF71BFF0021A015B4
:10110000FFF717FF25E0B648844209D10121080402
:10111000FFF702FF00214FF48030FFF7FDFE18E0DB
:10112000B048844209D101214804FFF7F5FE0021AF
:101130004FF40030FFF7F0FE0BE0AB48844208D1DB
:1011400001218804FFF7E8FE00214FF48020FFF71B
:10115000E3FE10BD00220288944B98420ED0994BBA
:1011600098420BD0B0F1804F08D0914B984205D0F7
:10117000904B984202D0904B984204D14FF68F7317
:101180001A404B881A438D4B984207D08C4B98429B
:1011900004D04FF6FF431A40CB881A4302808B8855
:1011A00083850B880385814B98420BD0854B9842F1
:1011B00008D08B4B984205D08A4B984202D08A4B7C
:1011C000984201D10B7A038601238382704770B560
:1011D000002400220023058C4FF6FE76354005845E
:1011E000028C8388048B4FF68F752C40B51E2C40E3
:1011F0000D882C43751E2A400D892A434D882A43A9
:101200006A4DA8420BD06F4DA84208D0744DA84239
:1012100005D0744DA84202D0734DA84213D14FF6A9
:10122000F7752A404D892A434FF6FB752A408D8871
:101230002A434FF6FF652B404FF6FF552B408D8913
:101240002B43CD892B4383800483CD8885860284FC
:1012500070BD70B5002400220023058C4FF6EF7698
:1012600035400584028C8388048B48F6FF752C403A
:101270004FF6FF452C400D884FF6FF7606EA052510
:101280002C434FF6DF752A400D8906EA05152A43DF
:101290004D8806EA05152A43444DA84202D0494D1F
:1012A000A8421DD14FF67F752A404D894FF6FF7633
:1012B00006EA05152A434FF6BF752A408D8806EACF
:1012C00005152A434FF6FF352B404FF2FF752B4093
:1012D0008D8906EA85052B43CD8906EA85052B43D2
:1012E00083800483CD880587028470BD70B5002497
:1012F00000220023058C4FF6FF6635400584028CE2
:101300008388848B4FF68F752C404FF6FC752C40EC
:101310000D882C434FF6FF552A400D894FF6FF7676
:1013200006EA05252A434D8806EA05252A431F4D6E
:10133000A84202D0234DA8421DD14FF2FF752A408A
:101340004D894FF6FF7606EA05252A434FF6FF350D
:101350002A408D8806EA05252A434EF6FF752B4064
:101360004DF6FF752B408D8906EA05152B43CD8977
:1013700006EA05152B4383808483CD888587028404
:1013800070BD70B5002200230024058C4EF6FF7658
:1013900035400584038C8488828B48F6FF752A408B
:1013A0004FF6FF452A400D8820E00000002C014048
:1013B0000004004000080040000C00400010004005
:1013C0000014004000340140004C01400050014036
:1013D0000054014000180040001C00400020004064
:1013E0000040014000440140004801404FF6FF76B4
:1013F00006EA05252A434DF6FF752B400D8906EABE
:1014000005352B434D8806EA05352B43FA4DA84296
:1014100002D0FA4DA84208D14BF6FF752C408D89B9
:101420004FF6FF7606EA85152C4384808283CD88AB
:10143000A0F84050038470BD828B4FF2FF331A40F6
:101440008283828B4FF6FF7303EA01231A43828360
:101450007047F0B50C461546002200210026078C87
:101460004EF6FF7C07EA0C070784828B018C4FF64F
:10147000FF7707EA043640F6FF473A404FF6FF771A
:1014800007EA05273A434FF6FF7707EA03373A435F
:10149000D94FB8420ED0D94FB8420BD0B0F1804FDF
:1014A00008D0D74FB84205D0D64FB84202D0D64F59
:1014B000B84206D14DF6FF77394046F4805739439C
:1014C00005E047F6FF57394044F48057394382839B
:1014D0000184F0BD828B4FF6F3731A408283828BB6
:1014E0000A4382837047F0B50C461546002200215E
:1014F0000026078C4FF6FF6C07EA0C070784828BE7
:10150000018C4FF6FF7707EA04264FF60C773A4036
:101510004FF6FF7707EA03172F433A43B64FB84217
:101520000ED0B64FB8420BD0B0F1804F08D0B44FB8
:10153000B84205D0B34FB84202D0B34FB84206D13B
:101540004FF6FF57394046F48077394305E04FF2B4
:10155000FF57394044F48077394382830184F0BDDA
:10156000028B4FF2FF331A400283028B4FF6FF7358
:1015700003EA01231A4302837047F0B50C4615466F
:10158000002200210026078C4FF6EF7C07EA0C07AB
:101590000784028B018C4FF6FF7707EA041640F6AA
:1015A000FF473A404FF6FF7707EA03373A434FF6D3
:1015B000FF7707EA05273A438F4FB8420ED08F4F87
:1015C000B8420BD0B0F1804F08D08D4FB84205D053
:1015D0008C4FB84202D08C4FB84206D14FF6DF771D
:1015E000394046F01007394305E04FF65F77394040
:1015F00044F01007394302830184F0BD028B4FF69B
:10160000F3731A400283028B0A4302837047F0B5DA
:101610000C46154600220021068C4FF6FE773E4010
:101620000684028B018C4FF60C7632407E1C06EA53
:1016300003162E433243704EB0420ED06F4EB0426E
:101640000BD0B0F1804F08D06D4EB04205D06D4E3A
:10165000B04202D06C4EB04206D14FF6FD7631401A
:1016600044F00106314305E04FF6F576314044F091
:101670000106314302830184F0BD70B505460C4676
:101680005D4885420ED05D4885420BD0B5F1804F54
:1016900008D05B48854205D05A48854202D05A4856
:1016A000854200D100E000BF208850B92389A2887C
:1016B00061882846FFF7ABFFE1882846FFF79EFFC9
:1016C00025E0208804280AD12389A2886188284639
:1016D000FFF753FFE1882846FFF742FF17E0208815
:1016E00008280AD12389A28861882846FFF7FBFED3
:1016F000E1882846FFF7EEFE09E02389A288618889
:101700002846FFF7A6FEE1882846FFF795FE70BD44
:101710002DE9F04105460C4600260127608808B9EE
:10172000022600E00026A088012801D1022700E05F
:1017300001272088A0B92389A28861882846FFF75D
:1017400066FFE1882846FFF759FF23893A4631466C
:101750002846FFF712FFE1882846FFF701FF13E054
:101760002389A28861882846FFF707FFE188284679
:10177000FFF7F6FE23893A4631462846FFF747FF32
:10178000E1882846FFF73AFFBDE8F0810A884B88D8
:101790001A438B881A43CB881A430B891A434B8907
:1017A0001A438B891A43A0F8442070474FF6FF7103
:1017B000818000210180C180418001727047002139
:1017C000018041808180C180018141818181C1810D
:1017D0007047002101804180012181800021C1806A
:1017E000018170470021018041808180C180018199
:1017F0004181818170470000002C0140003401408C
:101800000004004000080040000C004021B10288A4
:1018100042F00102028004E002884FF6FE731A4093
:101820000280704731B1B0F8442042F40042A0F881
:10183000442005E0B0F84420C2F30E02A0F8442092
:1018400070471AB183890B43838102E083898B43FC
:10185000838170478182704741EA0203A0F84830D3
:1018600070471AB183890B43838102E083898B43DC
:101870008381704701894FF6F872114001817047EA
:101880000A46002101894FF68F73194011430181E7
:10189000704730B504460D4629462046FFF7F0FF55
:1018A000208940F00700208130BD2DE9F041044639
:1018B0000D4616461F46602D06D13B460122314695
:1018C0002046FFF75AFE05E03B46012231462046FE
:1018D000FFF79DFE29462046FFF7D2FF208940F002
:1018E00007002081BDE8F08130B50C460021018958
:1018F000C9B24FF6FF7505EA032515432543294371
:10190000018130BD2DE9F04105460E461746984647
:10191000002443463A4631462846FFF7E5FF2C8926
:101920004FF6F870044044F007044FF68F700440FF
:1019300044F070042C81BDE8F081F0B504460D46FA
:1019400016461F463B46324629462046FFF7CCFF47
:10195000208940F480402081F0BD0185828270475B
:101960000A46002101884FF68F7319401143018008
:101970007047F0B50C4615461E4600210022002394
:101980000189028B038C4FF6F877394021434FF6DB
:10199000FC473A4040F201173A434FF6DD773B40AF
:1019A0004FF6FF7707EA06172F433B430181028377
:1019B0000384F0BD0A460021018B4FF68F73194056
:1019C0001143018370470A460021018B48F6FF73DB
:1019D00019404FF6FF7303EA02231943018370474E
:1019E0000A460021818B4FF68F7319401143818382
:1019F00070470A460021818B48F6FF7319404FF665
:101A0000FF7303EA022319438183704721B10288DF
:101A100042F08002028004E002884FF67F731A4091
:101A20000280704721B1828842F00402828004E083
:101A300082884FF6FB731A408280704721B18288FA
:101A400042F00802828004E082884FF6F7731A4061
:101A50008280704721B1828842F00102828004E0D6
:101A600082884FF6FE731A40828070470A46002132
:101A7000018B4FF6F77319401143018370470A46F3
:101A80000021018B4FF2FF7319404FF6FF7303EAF9
:101A900002231943018370470A460021818B4FF6C8
:101AA000F77319401143818370470A460021818BE7
:101AB0004FF2FF7319404FF6FF7303EA02231943F5
:101AC000818370470A460021018B4FF6FB73194052
:101AD0001143018370470A460021018B4FF6FF3303
:101AE00019404FF6FF7303EA02231943018370473D
:101AF0000A460021818B4FF6FB7319401143818305
:101B000070470A460021818B4FF6FF3319404FF68C
:101B1000FF7303EA02231943818370470A460021B9
:101B2000018B4FF67F7319401143018370470A46BA
:101B30000021018BC1F30E014FF6FF7303EA02236C
:101B40001943018370470A460021818B4FF67F734A
:101B500019401143818370470A460021818BC1F3EC
:101B60000E014FF6FF7303EA022319438183704786
:101B70000A460021018C4FF6FD7319401143018480
:101B800070470A460021018C4FF6F7731940114344
:101B9000018470470A460021018C4FF6DF7319401B
:101BA0004FF6FF7303EA02131943018470470A4694
:101BB0000021018C4FF67F7319404FF6FF7303EA43
:101BC00002131943018470470A460021018C4FF625
:101BD000FF5319404FF6FF7303EA022319430184B0
:101BE00070470A460021018C4FF2FF7319404FF6EF
:101BF000FF7303EA02231943018470470A46002158
:101C0000018C4DF6FF7319404FF6FF7303EA023360
:101C100019430184704730B5002301248C40A3B2DE
:101C2000048C9C430484048C02FA01F5ADB22C436D
:101C3000048430BD30B5002304248C40A3B2048C4E
:101C40009C430484048C02FA01F5ADB22C43048455
:101C500030BD70B503460020002418461830012519
:101C60008D40ACB21D8CA5431D8409B1082909D152
:101C700000EB6100056825F07005056005681543F7
:101C800005600EE00D1FC5F34E052844056825F4D8
:101C9000E045056005684FF6FF7606EA0226354303
:101CA000056070BD21B1028842F00202028004E0AA
:101CB00002884FF6FD731A400280704721B10288F6
:101CC00042F00402028004E002884FF6FB731A40DF
:101CD0000280704721B1828842F08002828004E055
:101CE00082884FF67F731A408280704702884FF6D1
:101CF000F7731A40028002880A4302807047828884
:101D00004FF68F731A40828082880A438280704720
:101D100002894FF6F8731A40028102890A43028150
:101D2000704702894FF67F731A40028102890A4385
:101D30000281704781847047818570478186704732
:101D40000187704781877047A0F84010704702886C
:101D50004FF6FF431A40028002880A430280704710
:101D60000146888E70470146088F70470146888F6C
:101D700070470146B1F8400070470146888C7047B3
:101D80000146088D704702460020138A0B400BB1B4
:101D9000012000E000207047CA430282704730B53E
:101DA0000246002000230024158A05EA01039589D4
:101DB00005EA010413B10CB1012000E0002030BDA0
:101DC000CA4302827047000070B586B001A8FFF7D1
:101DD0001CF84FF47A710298B0FBF1F4E4086FF04C
:101DE0000400FEF766FA2146B1F1807F00D31DE0C2
:101DF00021F07F40401E4FF0E022506150170F222B
:101E0000002807DA13071E0E094B00F00F052D1FDF
:101E10005E5503E013071D0E064B1D5400BF002046
:101E20004FF0E02290610720106100BF06B070BD46
:101E300018ED00E000E400E010B55B4800780128F0
:101E400063D15A48006810B158490868804756481D
:101E50004088022808DB00205349488053484068E6
:101E600010B15249486880474F488088032808DBF2
:101E700000204D4988804D48806810B14B498868E2
:101E800080474948C088052808DB00204649C880AB
:101E90004648006910B145490869804742480089B1
:101EA0000A2808DB0020404908814048406910B1F9
:101EB0003E49486980473C484089142808DB002097
:101EC000394948813948806910B138498869804763
:101ED00035488089322808DB00203349888133481F
:101EE000C06910B13149C86980472F48C08964284A
:101EF00008DB00202C49C8812C48006A10B12B490E
:101F0000086A804700202849087010BD264840888C
:101F1000401C2549488008468088401C8880084627
:101F2000C088401CC88008460089401C08810846BB
:101F30004089401C488108468089401C88810846A9
:101F4000C089401CC88108460078012804D1084691
:101F50004078401C487002E0012013490870704727
:101F60000FB410B512480078A0B910490298086063
:101F7000039848600498886006980861079848614B
:101F8000089888610998C8610A980862AFF28300CE
:101F900000F010F810BC5DF814FB10B500F010F85C
:101FA00001200349087010BD2800002038000020DF
:101FB000140000204549097809B94549086070476F
:101FC0000120424908707047424A11684FF0E022F0
:101FD00052694FF0E0239B69D21A4FF47A735A4347
:101FE0004FF0E0235B69B2FBF3F201EB4103C3EB7B
:101FF000C11302EBC300704730B50446FFF7E4FF9E
:10200000054600BFFFF7E0FF401BA042FAD330BDFA
:1020100010B5044603E04FF47A70FFF7EDFF201E81
:10202000A4F10104F7D110BD70B5044604EB4400DF
:10203000294951F8200004EB4401274A02EB8101B1
:102040004860FFF7C1FF064601F092F805462349B4
:1020500000F094FF04EB44011F4A42F8210004EB16
:1020600044021D4B03EB8202516804EB440253F817
:10207000220001F0CDF904EB4401174A02EB810183
:10208000886004EB4400114601EB8000806870BD5D
:1020900010B5002404E02046FFF7C6FF601CC4B260
:1020A000032CF8DB10BD10B50A480068401C094934
:1020B00008600648007800B910BD0548006810B1F6
:1020C00003480068804700BFF6E7000018000020C2
:1020D000200000201C0000205C0000200024744927
:1020E000014609B900207047012008704FF07E506A
:1020F0004860B24888600120F5E72DE9F0410446C8
:102100000E4614B90020BDE8F08135462846216A04
:1021100001F042F900D2256A2846616A01F03CF8D4
:1021200000D2656AE561A649284601F035F90CD26E
:1021300021896068FEF7C7FC218AE068FEF7C5FCCC
:102140002946206800F014FB1FE09E49284601F054
:1021500023F80ED221896068FEF7B7FC218AE06877
:10216000FEF7B1FC85F000473946206800F000FB1F
:102170000BE021896068FEF7A6FC218AE068FEF783
:10218000A2FC0021206800F0F3FA0021284601F0AB
:1021900003F901D8284601E085F00040A062012043
:1021A000B1E77FB504460D46012604B115B90020FC
:1021B00004B070BD206808B90020F9E78248844265
:1021C0000BD1824880494860401508817F48C8602B
:1021D000C0140882C004486113E07B483C3084424C
:1021E0000DD17A493C3801648914A0F8441077492C
:1021F00081640915A0F84C107549016501E00020C3
:10220000D6E72878207669682162A9686162002192
:10221000E161A162E162216361632187012E62D1E4
:102220006C48007830B901212020FEF75BFE0120C8
:10223000684908706846FEF724FC10208DF80300FA
:1022400003208DF802002089218A0843ADF80000A0
:1022500069466068FEF78AFB2289238A42EA030105
:102260006068FEF732FC5848844212D101210846CA
:10227000FEF745FE01210420FEF734FE04208DF810
:1022800003000320ADF8000069465348FEF76EFBDB
:1022900011E001210420FEF732FE01210820FEF7A3
:1022A00021FE04208DF80300C020ADF8000069462F
:1022B0004A48FEF75BFB01A8FFF778FA4FF6FF707C
:1022C000ADF808000020ADF80400ADF80A00ADF844
:1022D000060001A96069FEF73DFF00231A460321AD
:1022E0006069FFF746FB012E0AD101216069FFF703
:1022F0008DFA207E012803D100212046FFF7FDFE44
:10230000304655E7014609B900207047012008769C
:1023100000BFFAE710B504460CB9002010BD00203C
:1023200020760021206800F023FA2289238A42EADD
:1023300003016068FEF7C9FB0120EFE72DE9F047D4
:10234000044614B90020BDE8F0876069858C208FB1
:10235000281A06B22587E06A8119E162D4E90B21C7
:10236000501A00F0EDFE0746E16A21631C49384629
:1023700000F046FF80461B49606B00F041FF81463C
:10238000414600F08DFD6063616BE1610120DAE799
:10239000014609B900207047486BFCE7014609B9BE
:1023A00000207047C86AFCE7014609B90020704761
:1023B0000022CA620A630120F9E70000000080BF22
:1023C0006F12833A6F1283BA80000020001401401C
:1023D000000800402400002000080140000C0140DB
:1023E0003333333F9A99993E014609B9002070472B
:1023F0000120087000BFFAE7F0B587B005460E4629
:1024000001276A4BD3E90021D3E90203CDE9040394
:10241000CDE9022166A103C9CDE9000105B116B9D4
:10242000002007B0F0BD6448854223D100241EE09F
:102430006248614941F8340002A830F8140001EB09
:10244000C40188801DF8041004EB44025A48483047
:1024500010444170012104EB440257484830815434
:10246000002104EB440210448170601CC4B2082CAB
:10247000DEDB01E00020D4E7307885F84000002161
:10248000696441204155012F10D101212020FEF720
:1024900029FD06A8FEF7F5FA48208DF81B00FF205D
:1024A000ADF8180006A92868FEF760FA3846B8E7C4
:1024B000014609B900207047012081F8400000BFA3
:1024C000F9E7014609B900207047002081F8400073
:1024D0000120F9E72DE9F05F04460027002614B932
:1024E0000020BDE8F09F002520E004EBC5029188A4
:1024F00054F83500FEF7CDFA58B9002105EB450236
:1025000004F148008154012105EB4502104481701B
:102510000AE0012105EB450204F148008154002145
:1025200005EB450210448170681CC5B2082DDCDB48
:10253000002513E005EB450104F1480008448078CC
:1025400050B105EB450104F14800084490F9010041
:10255000384407B2701CC6B2681CC5B2082DE9DB4E
:10256000002E16DD304600F003FE8246384600F0AD
:10257000E7FD8346514600F001FD8146104900F019
:10258000FDFC8046C4F844800121412001554046AD
:10259000A7E7002141200155606CA2E7014609B977
:1025A000002070474120405CFBE70000FC3400083D
:1025B00007050301FFFDFBF9F800002000140140AE
:1025C0000000E040014609B9002070470120087072
:1025D000002048707D4848604FF07E5088600020A1
:1025E000C86008610120F0E7F0B589B004460D46E7
:1025F000012604B115B9002009B0F0BD7448844229
:1026000009D1744872490860002088807248886047
:102610004020888110E06E48243084420AD16D4801
:102620006B49486204216A4801856B49C162802177
:10263000018601E00020DFE7287820746978617462
:102640006648696800F09AFC074600F059FD401E94
:1026500060820021A182A968A161E968E16129691C
:102660002162012E58D15E480078C0B901210220B4
:10267000FEF745FC06A8FFF799F8608AADF81C0044
:10268000A08AADF818000020ADF81E00ADF81A00C1
:1026900006A92068FEF75EFD01205149087002A8D6
:1026A000FFF78DF86020ADF808000120ADF80A00B2
:1026B000607C08B9002000E00220ADF81000002086
:1026C000ADF80E00A08840B902A92068FEF77FFD92
:1026D00008212068FFF7CAF90AE0A088042807D17A
:1026E00002A92068FEF7B5FD08212068FFF7C7F9A9
:1026F00001210420FEF7F6FB01A8FEF7C2F918201D
:102700008DF8070003208DF80600A089ADF80400BD
:1027100001A9A068FEF72AF9012E0BD1207C01281F
:1027200008D101212068FFF771F8A18801222068F3
:10273000FFF771FA30465FE710B504460CB9002088
:1027400010BD01202074A18801222068FFF763FAE0
:102750000120F5E710B504460CB9002010BD00209B
:102760002074A18800222068FFF755FA0120F5E7C0
:102770002DE9F04104460D4614B90020BDE8F08172
:102780002846A16900F008FE00D2A5692846E16943
:1027900000F002FD00D2E5692562618A481C00F064
:1027A000CFFC8046294600F02BFD074600F0A8FC30
:1027B00086B2A08820B931462068FFF7BFFA03E04F
:1027C00031462068FFF7BCFA0120D7E700401C46DD
:1027D0005801002000040040000801404054894C8A
:1027E000250000202DE9F04704460D4616461F46F9
:1027F000DDE9099ADDF820800CB9BDE8F0873021C9
:10280000204600F0E9FA25706660A760C4F80C80E5
:10281000C4F81090C4F814A0012084F82C0000BF64
:10282000EBE700B97047816100BFFBE700B9704773
:1028300041608260C36000BFF9E72DE9FF5F044695
:102840000E4617464FF000081CB9002004B0BDE842
:10285000F09FA6613946304600F0DAFD054694F84F
:102860002C0038B1E561256200206062A06284F826
:102870002C00EBE72078002852D12946606800F050
:10288000BFFC03902946606A00F00AFB606252496F
:10289000A06800F005FB02902069029900F06EFB31
:1028A0008246616A00F078FC0AD24B49A06800F0C9
:1028B000F7FA82465146206900F060FB606217E03B
:1028C0004549A06800F0ECFA02906069029900F0B6
:1028D00055FB8246616A00F05FFD09D23E49A0685F
:1028E00000F0DEFA82465146606900F047FB606204
:1028F000616AA06800F084FC83462846E16900F024
:1029000087FD8246E16800F07BFC814659460398CA
:1029100000F0C6FA8246494600F0C2FA80462EE030
:102920002846E16900F074FD8346616800F068FCA8
:1029300081462946A06800F063FC03904FF0804078
:10294000E16900F05DFC2946009000F056FD8346E9
:10295000216A00F0A5FA0190E16800F051FC82467E
:102960004846039900F09CFA8346514600F098FAD5
:102970000290A06A029900F093FA804600BF404698
:10298000216900F009FD07D2D4F8108020780128D1
:1029900011D12069A0620EE04046616900F0FCFBA5
:1029A00007D2D4F814802078012804D16069A0628D
:1029B00001E0C4F82880E0692062E561404645E70F
:1029C00000B970470021C161016241628162012149
:1029D00080F82C1000BFF4E76F12833A014609B962
:1029E00000207047012008704FF07C5048604FF085
:1029F0007E5088600120F4E7FEB504460D460126AE
:102A000004B10DB90020FEBD206818B1606808B19E
:102A1000A06808B90020F6E728782073696821616A
:102A2000A96861616A486B496B4A0023CDE90021BE
:102A300002906A4A194604F11800FFF7D3FE012EEE
:102A400007D100212068FFF758FB00216068FFF7DD
:102A500054FB3046D7E7014609B9002070470120F2
:102A6000087300BFFAE710B504460CB9002010BD8A
:102A70000020207300212068FFF73FFB00216068E1
:102A8000FFF73BFB0120F2E72DE9F84F044614B9AC
:102A90000020BDE8F88F207B012801D00020F8E756
:102AA000A068FFF717FD05462A46002104F118002B
:102AB000FFF7C3FE83460021284600F06DFC01D8D5
:102AC000284601E085F0004081464946002000F09C
:102AD00097FB4FF07E51009000F08FFC82462169F9
:102AE00000F08EFB80463E49404600F055FB01D287
:102AF000DFF8EC804046216900F04EFC01D2D4F8AA
:102B000010805946404600F0CBF9064659464046EB
:102B100000F07EFC07463046616900F03DFC00D2C3
:102B200066690021304600F037FB00D200263846A7
:102B3000616900F031FC00D267690021384600F07D
:102B40002BFB00D2002731462068FFF7D6FA394622
:102B50006068FFF7D2FA01209BE710B504460CB974
:102B6000002010BD00212068FFF7C7FA002160682F
:102B7000FFF7C3FA04F11800FFF722FF0120F0E786
:102B800070B504460D460CB9002070BD2846616939
:102B900000F002FC00D265690021284600F0FCFA32
:102BA00000D2002525610120EFE72DE9F041044620
:102BB0000D4616461F4614B90020BDE8F0813B467D
:102BC0003246294604F11800FFF730FE0120F4E7F1
:102BD000CDCC4CBFCDCC4C3FCDCCCC3E9A99993F7F
:102BE000CDCCCC3D7047704710B55E48FFF74CFF29
:102BF00010BD70477047704710B5FEF705F84FF4E9
:102C00008030FEF721F800BF3120FEF740F80028A1
:102C1000FAD01020FDF780FB0220FDF769FB0020B1
:102C2000FEF797F80020FEF7A6F84FF48060FEF755
:102C300099F84FF4E0114FF48030FEF76DF8012061
:102C4000FEF776F800BF3920FEF721F80028FAD009
:102C50000220FEF770F800BFFEF776F80828FBD1D7
:102C600001210420FEF73EF901210820FEF73AF980
:102C700001211020FEF736F901212020FEF732F95C
:102C800001210846FEF72EF901210846FEF737F923
:102C900001210220FEF733F901210420FEF72FF96C
:102CA00010BD9AB0FFF7A8FFFFF78EF80CA8FFF74A
:102CB00089FC0CA92C48FFF797FC0CA92A48243062
:102CC000FFF792FC0BA8FFF78FFB0BA92748FFF734
:102CD00093FB08A8FFF704FA23482549086008A9D0
:102CE0002348FFF75EFA204824302149C86308A929
:102CF0001F483C30FFF755FA05A8FFF76FFE1C4848
:102D0000184908603C3048601848886005A9154893
:102D1000FFF772FEAFF23310119000201290139063
:102D20001490AFF23D101590AFF243101690AFF231
:102D30003D101790AFF243101890AFF24510199064
:102D4000142215A9684600F015F811A80FC8FFF75E
:102D500007F9FFF722F901E0FFF76EF8FCE772B61A
:102D600000BFFEE7A001002058010020F80000206D
:102D70008000002010B5203AC0F00B80B1E8185058
:102D8000203AA0E81850B1E81850A0E81850BFF455
:102D9000F5AF5FEA027C24BFB1E81850A0E81850F4
:102DA00044BF18C918C0BDE810405FEA827C24BF48
:102DB00051F8043B40F8043B08BF7047D20728BFD6
:102DC00031F8023B48BF11F8012B28BF20F8023B25
:102DD00048BF00F8012B70474FF0000200B51346C2
:102DE00094469646203922BFA0E80C50A0E80C502B
:102DF000B1F12001BFF4F7AF090728BFA0E80C50DC
:102E000048BF0CC05DF804EB890028BF40F8042BD4
:102E100008BF704748BF20F8022B11F0804F18BF41
:102E200000F8012B7047704770477047754600F0F7
:102E30002BF8AE4605006946534620F0070085464C
:102E400018B020B5FDF7D4F9BDE820404FF00006DA
:102E50004FF000074FF000084FF0000B21F0070182
:102E6000AC46ACE8C009ACE8C009ACE8C009ACE8C5
:102E7000C0098D46704710B50446AFF30080204668
:102E8000BDE81040FDF79BB900487047E8010020FD
:102E900001491820ABBEFEE7260002007047000083
:102EA00090EA010F48BF81F0004100F1B882421A58
:102EB0003CBF801A89184FEAD0524FF07F4C1CEA71
:102EC000410FA2EBD15318BF9CEA026F00F03B8088
:102ED0004FF0004C4CEA00204CEA012121FA03FC9F
:102EE00010EB0C0C1ED202F1FF325FEA1C2040EB0B
:102EF000C25038BF70471CF07F0F4FEA400C18BF1C
:102F0000BCF17F4F38BF7047C3F12003994008BF21
:102F100020F00100BCF17F4F38BF7047A0F1C040E6
:102F200000F035BA4FEA3C00000A40EBC25028BF1F
:102F30001CF0FF0F4FEA400CE6D018BFBCF17F4FEA
:102F400038BF7047EAE79CEA026F05D010EA5C0FD1
:102F500008BF00F00040704710B500F0D2F900BF84
:102F600064FBBE3E401058BFC0F14040491058BFFE
:102F7000C1F140418142EFF3008070474FF47F0C74
:102F80001CEAD0121EBF1CEAD11392EA0C0F93EA7E
:102F90000C0F00F0858090EA010F48BF42F4807268
:102FA00040F4000C41F400002CF07F4120F07F4001
:102FB00000B58142A2EB03020FF2081CACEB504EAD
:102FC000C0F100009EF800E04FEA4E0E00FB0EFC40
:102FD00038BF49004FEA2C1C02F5FA020CFB0EF335
:102FE0004FEACE1E4FEA112C4FEAC1210EEB635E71
:102FF00042EB22420EFB0CFC4FEA1C5300FB031178
:103000004FEA112C4FEA01310EFB0CFC4FEADC4C6D
:1030100000FB0C11C14228BF09184CEB03335DF8CB
:1030200004EB10EB410143EBC250B2F57C0F38BF0B
:10303000704729D512F0F00F1CBF00F1C04000F01E
:1030400000407047008182838485868788898B8CC5
:103050008D8E8F919293959697999A9C9D9FA0A201
:10306000A3A5A7A8AAACAEB0B2B3B5B7B9BCBEC051
:10307000C2C5C7C9CCCED1D4D7D9DCDFE2E6E9ECF2
:10308000F0F3F7FAFE0000004FEA400C0CF1807CF0
:10309000BCF17E4F28BF7047B0F1C04000F077B957
:1030A00090EA010F0CEAD11348BF42F480726245E6
:1030B00038BF634507D213F47F0F16D080EA0100B2
:1030C00000F00040704710B500F01BF9097EFC3E8F
:1030D00000F005B880EA010000F00040704780EA87
:1030E000010000F0004000F052B912F47F0F04BF5D
:1030F0000248704780EA010000F049B90000C07F33
:10310000C10DD1F19E0206DB4FEA002343F00043DC
:1031100023FA02F07047004207D54FEA4001B1F1AF
:10312000FE4F02D24FF00000704710B500F0E9F8F2
:1031300049922480002070476FEA20007047000009
:1031400010F0004148BF4042B0FA80F310FA03F299
:10315000C3F19D030BD051EAC35101EB122053067A
:1031600038BF704700F1010008BF20F00100704730
:10317000B0FA80F310FA03F2C3F19D030AD0D90527
:1031800001EB1220530638BF704700F1010008BF61
:1031900020F001007047000050EA010C00F113809C
:1031A0001CF5000F58BFBCF5000F01D488427047D2
:1031B00007D710F5000F58BF11F5000F15D488423E
:1031C0007047894270471CF5000F04D5BCF5000F0D
:1031D000F7D5814270474FF0807C1CEB400F38BF21
:1031E0001CEB410F01D28142704710B500F089F805
:1031F000922449004FF000504FF08051FFF7B2BECB
:103200004FF47F0C1CEAD0121EBF1CEAD11392EAC5
:103210000C0F93EA0C0F00F0478090EA010F48BFB3
:1032200042F480724FF0004C4CEA00204CEA01213D
:1032300002EB0302A0FB0113A2F50002002918BF54
:1032400043F001035B0028BF4FEA330342EB224205
:103250005FEA132C4CEBC2502EBFBCEB436FB2F5B0
:103260007C0F70474FEA036CBCF1004F08BF20F0A1
:103270000100B2F57C0F38BF70470BD582F0FF021A
:1032800012F5803FC8BF704700F1C040D8BF00F0C2
:103290000040704700F5000C5FEA4C0C48BF7047D7
:1032A000B0F1C04000F073B890EA010F0CEAD113FE
:1032B00048BF42F48072624538BF634504D280EA59
:1032C000010000F00040704710B500F01AF800BF90
:1032D0008900013E00F007B800F009B85FEA410C30
:1032E0005FEA1C6C08D080EA010000F050B85FEA89
:1032F000400C5FEA1C6CF6D14FF00040A0F5800056
:1033000070470EF1020E2EF0030E5EF8044B2442BD
:1033100004D44FEA4102B2F17F4F11D84FEA400383
:10332000B3F17F4F0CD80ED14FEAD07CB2F17F4F72
:103330000CEB4C0C0CF1020C08BF4CEBD17C04E004
:103340004FF0080C01E04FEAD17C0CEB4C0324FA5F
:1033500003F404F00704B4F1040C06D20EEB840C61
:10336000BDE810404CF0010C6047DFE80CF00708A6
:1033700002024FF00040A0F5800010BD0846420058
:1033800018BFD2F1807288BF00F0004010BDFF214D
:1033900041EAD050C005704751EA000C00F113809B
:1033A0001CF5000F58BFBCF5000F01D481427047D7
:1033B00007D711F5000F58BF10F5000F15D4814243
:1033C0007047894270471CF5000F04D5BCF5000F0B
:1033D000F7D5884270474FF0807C1CEB410F38BF17
:1033E0001CEB400F01D28842704780EA010081EA5D
:1033F000000180EA0100FFF7F8BE80F0004090EA8B
:10340000010F7FF554AD81F0004100F008B80000D5
:1034100090EA010F48BF81F000413FF548AD421AE4
:1034200004D882F00042A0EB020011444FEAD052CF
:103430004FF07F4C1CEA410FA2EBD15318BF9CEA1E
:10344000026F4AD04FF0004C4CEA00204CEA0121B8
:1034500021FA03FCB0EB0C0C0FD412F0FE0F36D0A7
:103460005FEA4C001DD5001240EBC25038BF7047D8
:103470001CF03F0F18BF70470BE0A2F101025FEA9A
:103480001C2040EBC25038BF70471CF07F0F18BFA4
:103490007047C3F12003994014BF401E20F0010083
:1034A000704780084FEA122308BF7047B0FA80FCCB
:1034B000A2EB0C02CCF1280C60FA0CF093EA122F6C
:1034C00004BF00EBC25070474FEAC3707047130A45
:1034D0005FEADC1008BF7047F6E79CEA026F04D091
:1034E00010EA5C0F08BF0020704710B5FFF709FF16
:1034F00040DFF63E81F0004070470000010002000E
:103500000400080010002000400080002C35000856
:1035100000000020280000006C010008543500085D
:1035200028000020200A0000880100080000000098
:103530000102030401020304060708090204060845
:10354000000000000000000000000000000000007B
:043550000000000077
:0400000508000131BD
:00000001FF
